:100000000C9434000C9451000C9451000C94510049
:100010000C9451000C9451000C9451000C9451001C
:100020000C9451000C9451000C9451000C9422013A
:100030000C9451000C9451000C9451000C945100FC
:100040000C9451000C9451000C940C020C9451002F
:100050000C9451000C9451000C9451000C945100DC
:100060000C9451000C94510011241FBECFEFD8E026
:10007000DEBFCDBF11E0A0E0B1E0E4EEFAE002C0E7
:1000800005900D92A235B107D9F721E0A2E5B1E0C4
:1000900001C01D92AB35B207E1F70E94D4000C9469
:1000A00070050C940000CF93DF9300D000D01F9216
:1000B000CDB7DEB7FE01319685E0DF011D928A954E
:1000C000E9F787B1816087B988B1816088B98FE924
:1000D0009FE00197F1F700C0000088B18E7F88B9DA
:1000E0009FEFA9EFB0E09150A040B040E1F700C011
:1000F000000088B1816088B987B18E7F87B9309957
:10010000FECF309BFECF3099FECF40E050E022C0C2
:10011000309BFECF20EA2A95F1F7309B11C021E0F9
:1001200030E0082E02C0220F331F0A94E2F7E1E00C
:10013000F0E0EC0FFD1FE40FF51F3081232B20832F
:100140003099FECF019702C087E090E0992304F731
:100150004F5F5F4F45305105BCF32D8130E0598131
:100160008A8190E0850F911D4B81840F911D6C81D8
:10017000860F911D2817390739F450935301409386
:10018000520180E090E002C08FEF9FEF0F900F9040
:100190000F900F900F90DF91CF91089580915301B0
:1001A00008958091520108950E94830187E60E947C
:1001B00027020E9431020E9437020E943D02789479
:1001C000809154018111FCCF0E945300892B81F54D
:1001D00087E191E00E944B020E94CE000E946702DC
:1001E00083E191E00E944B0284E091E00E944B0287
:1001F0000E94D1000E94670280E091E00E944B02C1
:1002000089E591E00E94C90182E291E00E944B02DF
:1002100089E591E00E944B0286E591E00E9486010B
:100220008BE291E00E944B0286E591E00E944B0236
:100230002FEF87EA91E6215080409040E1F700C01F
:100240000000BECF1F920F920FB60F9211248F9312
:100250009F93809157018F5F809357019091550133
:100260009F5F90935501843129F481E080935A0176
:10027000109257019F918F910F900FBE0F901F907A
:100280001895982F92959F70990F292F220F220F62
:10029000920F8F70890F08951092B9008FEF80939D
:1002A000B80084E08093BC00089584EA8093BC0089
:1002B0008091BC008823E4F7089584E98093BC0012
:1002C0008091BC0084FDFCCF08958093BB0084E83E
:1002D0008093BC008091BC008823E4F7089584ECEF
:1002E0008093BC008091BC008823E4F78091BB0020
:1002F000089584E88093BC008091BC008823E4F7D3
:100300008091BB0008950E944C010895FF920F93C5
:100310001F93CF93DF93C82FD92F0E94550180EDF3
:100320000E94650180E00E9465010E945D010E94BB
:10033000550181ED0E9465010E946F010E944101FB
:10034000F82E0E946F010E944101082F0E9479013E
:100350000E944101182F0E945D011F92FF921F927F
:100360000F931F921F9383E391E09F938F93DF93EB
:10037000CF930E9486028DB79EB70A960FB6F89467
:100380009EBF0FBE8DBFDF91CF911F910F91FF9048
:100390000895FF920F931F93CF93DF93C82FD92F08
:1003A0000E94550180ED0E94650184E00E94650174
:1003B0000E945D010E94550181ED0E9465010E942D
:1003C0006F010E944101182F0E946F010E9441019C
:1003D000082F0E9479010E944101F82E0E945D01C0
:1003E0001F92FF921F920F931F921F9382E491E03E
:1003F0009F938F93DF93CF930E9486028DB79EB712
:100400000A960FB6F8949EBF0FBE8DBFDF91CF91B5
:100410001F910F91FF9008951F920F920FB60F92A8
:1004200011248F939F938091C600833711F08335F9
:1004300039F49091540181E0911180E0809354014E
:100440009F918F910F900FBE0F901F901895109253
:10045000C10096E09093C2001092C5008093C40042
:100460000895E1ECF0E08081886080830895E1ECFC
:10047000F0E08081806180830895E1ECF0E080818C
:100480008068808308958091C00085FFFCCF089527
:100490008093C6000895EF92FF920F931F93CF931E
:1004A0007C01C0E007C00E944302F80180810E94E5
:1004B0004802CF5F87010C0F111DF8018081811167
:1004C000F2CFCF911F910F91FF90EF900895CF93AE
:1004D000DF93D82F0E944302CDECDC9FC12D112465
:1004E000C695C695C69580E38C0F0E9448020E946F
:1004F0004302CC0F8C2F880F880FC80F8D2F8C1BB9
:10050000805D0E944802DF91CF910895AEE0B0E097
:10051000ECE8F2E00C9447050D891E8986E08C8397
:100520001A8309838FEF9FE79E838D83AE01475E19
:100530005F4F6F89788DCE0101960E94A802EF81EE
:10054000F885E00FF11F10822E96E4E00C9463050D
:10055000ABE0B0E0EEEAF2E00C9439056C017B010F
:100560008A01FC0117821682838181FFCCC1CE01F2
:1005700001963C01F6019381F70193FD859193FF6C
:1005800081917F01882309F4BAC1853239F493FD42
:10059000859193FF81917F01853229F4B60190E026
:1005A0000E949F04E7CF912C212C312CFFE1F31501
:1005B000D8F08B3279F038F4803279F08332A1F4BC
:1005C000232D20611DC08D3261F0803369F4232D0D
:1005D000216016C0832D8260382EE32DE4603E2E0C
:1005E0002AC0F32DF8601DC037FC2DC020ED280F68
:1005F0002A3040F08E32B9F436FC81C1232D2064BC
:10060000322E19C036FE06C08AE0989E200D1124B5
:10061000922E11C0EAE02E9E200D1124222EF32DE1
:10062000F0623F2E08C08C3621F4832D8068382E6E
:1006300002C0883641F4F70193FD859193FF8191C3
:100640007F018111B3CF982F9F7D9554933028F46B
:100650000C5F1F4F9FE399830DC0833631F08337C2
:1006600071F0833509F059C021C0F8018081898378
:100670000E5F1F4F88248394912C530113C02801CF
:10068000F2E04F0E511CF801A080B18036FE03C08D
:10069000692D70E002C06FEF7FEFC5010E949404E6
:1006A0004C018201F32DFF773F2E16C0280122E076
:1006B000420E511CF801A080B18036FE03C0692DA6
:1006C00070E002C06FEF7FEFC5010E9489044C010A
:1006D000F32DF0683F2E820133FC1BC0822D90E089
:1006E00088169906B0F4B60180E290E00E949F045B
:1006F0002A94F4CFF50137FC859137FE81915F0193
:10070000B60190E00E949F0421102A9421E0821AF1
:1007100091088114910471F7E8C0843611F089368C
:1007200041F5F80137FE07C06081718182819381B4
:100730000C5F1F4F08C060817181072E000C880B71
:10074000990B0E5F1F4FF32DFF763F2E97FF09C0C9
:1007500090958095709561957F4F8F4F9F4FF06872
:100760003F2E2AE030E0A3010E94DB04882E861889
:1007700045C0853731F4232D2F7EB22E2AE030E09C
:1007800025C0932D997FB92E8F36C1F018F4883586
:1007900079F0B5C0803719F0883721F0B0C0E92F63
:1007A000E061BE2EB4FE0DC0FB2DF460BF2E09C06B
:1007B00034FE0AC0292F2660B22E06C028E030E0A1
:1007C00005C020E130E002C020E132E0F801B7FED0
:1007D00007C060817181828193810C5F1F4F06C0C9
:1007E0006081718180E090E00E5F1F4FA3010E9445
:1007F000DB04882E8618FB2DFF773F2E36FE0DC0BA
:10080000232D2E7FA22E891458F434FE0BC032FC07
:1008100009C0832D8E7EA82E05C0B82CA32C03C042
:10082000B82C01C0B92CA4FE0FC0FE01E80DF11DCB
:100830008081803321F49A2D997EA92E09C0A2FED1
:1008400006C0B394B39404C08A2D867809F0B3949B
:10085000A3FC11C0A0FE06C0B21488F4280C922C90
:100860009B180EC0B21460F4B60180E290E00E94C2
:100870009F04B394F7CFB21418F42B1802C0982C2D
:10088000212CA4FE10C0B60180E390E00E949F04DA
:10089000A2FE17C0A1FC03C088E790E002C088E573
:1008A00090E0B6010CC08A2D867859F0A1FE02C0F6
:1008B0008BE201C080E2A7FC8DE2B60190E00E94CD
:1008C0009F04891438F4B60180E390E00E949F04ED
:1008D0009A94F7CF8A94F301E80DF11D8081B60157
:1008E00090E00E949F048110F5CF222009F442CEAF
:1008F000B60180E290E00E949F042A94F6CFF601B0
:100900008681978102C08FEF9FEF2B96E2E10C94D6
:100910005505FC010590615070400110D8F7809595
:1009200090958E0F9F1F0895FC01615070400190BB
:100930000110D8F7809590958E0F9F1F08950F9303
:100940001F93CF93DF93FB01238121FD03C08FEF22
:100950009FEF2CC022FF16C046815781248135812C
:100960004217530744F4A081B1819D012F5F3F4F8F
:10097000318320838C93268137812F5F3F4F3783CC
:10098000268314C08B01EC01FB010084F185E02D6E
:100990000995892BE1F6D80116968D919C911797B0
:1009A000019617969C938E931697CE01DF91CF9167
:1009B0001F910F910895FA01AA27283051F1203193
:1009C00081F1E8946F936E7F6E5F7F4F8F4F9F4FE3
:1009D000AF4FB1E03ED0B4E03CD0670F781F891F25
:1009E0009A1FA11D680F791F8A1F911DA11D6A0FF3
:1009F000711D811D911DA11D20D009F468943F91A6
:100A00002AE0269F11243019305D3193DEF6CF01A4
:100A10000895462F4770405D4193B3E00FD0C9F76A
:100A2000F6CF462F4F70405D4A3318F0495D31FDD7
:100A30004052419302D0A9F7EACFB4E0A69597952A
:100A4000879577956795BA95C9F700976105710500
:100A500008959B01AC010A2E06945795479537954A
:100A60002795BA95C9F7620F731F841F951FA01DA4
:100A700008952F923F924F925F926F927F928F9242
:100A80009F92AF92BF92CF92DF92EF92FF920F931D
:100A90001F93CF93DF93CDB7DEB7CA1BDB0B0FB627
:100AA000F894DEBF0FBECDBF09942A8839884888E4
:100AB0005F846E847D848C849B84AA84B984C8847A
:100AC000DF80EE80FD800C811B81AA81B981CE0F71
:100AD000D11D0FB6F894DEBF0FBECDBFED01089556
:040AE000F894FFCFB8
:100AE400432020002054656D7065726174757261D5
:100AF4003A2000252020002048756D656461643A21
:100B040020002046454348413A200020484F5241A6
:100B14003A2000253032643A253032643A253032A6
:100B24006400253032642F253032642F253032643E
:020B34000000BF
:00000001FF
