S01700004763634170706C69636174696F6E342E7372656358
S11300000C9434000C9451000C9451000C94510045
S11300100C9451000C9451000C9451000C94510018
S11300200C9451000C9451000C9451000C949001C8
S11300300C9451000C9451000C9451000C945100F8
S11300400C9451000C9451000C947E020C945100B9
S11300500C9451000C9451000C9451000C945100D8
S11300600C9451000C94510011241FBECFEFD8E022
S1130070DEBFCDBF11E0A0E0B1E0E8ECFBE002C0E0
S113008005900D92A437B107D9F721E0A4E7B1E0B8
S113009001C01D92AC37B207E1F70E9438010C94FD
S11300A0E2050C940000CF93DF9300D000D01F92A0
S11300B0CDB7DEB7FE01319685E0DF011D928A954A
S11300C0E9F787B1816087B988B1816088B98FE920
S11300D09FE00197F1F700C0000088B18E7F88B9D6
S11300E09FEFA9EFB0E09150A040B040E1F700C00D
S11300F0000088B1816088B987B18E7F87B980E0BC
S113010090E005C025E02A95F1F700000196309BA8
S113011004C0883EA3E09A07A8F3883E934008F001
S11301206DC080E090E005C025E02A95F1F700005D
S11301300196309904C0883EA3E09A07A8F3883E4C
S1130140934008F05EC080E090E005C025E02A9569
S1130150F1F700000196309B04C0883EA3E09A07A3
S1130160A8F3883E934008F04FC040E050E02BC015
S113017025E02A95F1F70000309BFACFA0EAAA9572
S1130180F1F7309B16C021E030E0082E02C0220FA8
S1130190331F0A94E2F7E1E0F0E0EC0FFD1FE40FF7
S11301A0F51F3081232B208304C0B5E0BA95F1F705
S11301B000003099FACF019702C087E090E09923BC
S11301C0DCF64F5F5F4F45305105BCF32D8130E0C5
S11301D059818A8190E0850F911D4B81840F911D77
S11301E06C81860F911D99272817390781F4509344
S11301F075014093740181E090E00BC08EEF9FEF96
S113020008C08EEF9FEF05C08EEF9FEF02C08FEF07
S11302109FEF0F900F900F900F900F90DF91CF9161
S11302200895809175010895809174010895109244
S11302308000E1E8F0E080818B60808389EF90E0CA
S11302409093890080938800EFE6F0E080818260DB
S11302508083089510927A01109279010895809113
S11302607801813019F410927801089580E008959E
S11302700E94F5010E94170187E60E9499020E94DC
S1130280A3020E94A9020E94AF0278948091760191
S11302908111FCCF0E9453000197B1F58AE191E0EE
S11302A00E94BD020E9411010E94D90286E191E0E0
S11302B00E94BD0287E091E00E94BD020E941401E9
S11302C00E94D90283E091E00E94BD02F8948BE77A
S11302D091E00E943B0285E291E00E94BD028BE71F
S11302E091E00E94BD0287E791E00E94F8018EE24E
S11302F091E00E94BD0287E791E00E94BD0280E088
S113030091E00E94BD0204C086E391E00E94BD0218
S113031078940E942A010E942F018823E1F3B6CF2A
S11303201F920F920FB60F9211242F938F939F93C6
S11303308091790190917A01019690937A0180934A
S11303407901803D974039F481E0809378011092DF
S11303507A01109279019F918F912F910F900FBE86
S11303600F901F901895982F92959F70990F292F91
S1130370220F220F920F8F70890F08951092B900E7
S11303808FEF8093B80084E08093BC00089584EAE2
S11303908093BC008091BC008823E4F7089584E92D
S11303A08093BC008091BC0084FDFCCF08958093B1
S11303B0BB0084E88093BC008091BC008823E4F7F0
S11303C0089584EC8093BC008091BC008823E4F7FA
S11303D08091BB00089584E88093BC008091BC00A8
S11303E08823E4F78091BB0008950E94BE0108951C
S11303F0FF920F931F93CF93DF93C82FD92F0E949F
S1130400C70180ED0E94D70180E00E94D7010E94BD
S1130410CF010E94C70181ED0E94D7010E94E10132
S11304200E94B301F82E0E94E1010E94B301082F3B
S11304300E94EB010E94B301182F0E94CF011F926A
S1130440FF921F920F931F921F9386E591E09F9353
S11304508F93DF93CF930E94F8028DB79EB70A96CD
S11304600FB6F8949EBF0FBE8DBFDF91CF911F9141
S11304700F91FF900895FF920F931F93CF93DF93F3
S1130480C82FD92F0E94C70180ED0E94D70184E0B4
S11304900E94D7010E94CF010E94C70181ED0E94F2
S11304A0D7010E94E1010E94B301182F0E94E101CB
S11304B00E94B301082F0E94EB010E94B301F82EA1
S11304C00E94CF011F92FF921F920F931F921F93BE
S11304D085E691E09F938F93DF93CF930E94F80278
S11304E08DB79EB70A960FB6F8949EBF0FBE8DBF08
S11304F0DF91CF911F910F91FF9008951F920F925A
S11305000FB60F9211248F939F938091C600833767
S113051011F0833539F49091760181E0911180E0F6
S1130520809376019F918F910F900FBE0F901F9033
S113053018951092C10096E09093C2001092C500E5
S11305408093C4000895E1ECF0E0808188608083AA
S11305500895E1ECF0E08081806180830895E1EC0E
S1130560F0E080818068808308958091C00085FFD9
S1130570FCCF08958093C6000895EF92FF920F93E5
S11305801F93CF937C01C0E007C00E94B502F8011D
S113059080810E94BA02CF5F87010C0F111DF80100
S11305A080818111F2CFCF911F910F91FF90EF9035
S11305B00895CF93DF93D82F0E94B502CDECDC9F32
S11305C0C12D1124C695C695C69580E38C0F0E9453
S11305D0BA020E94B502CC0F8C2F880F880FC80F67
S11305E08D2F8C1B805D0E94BA02DF91CF910895FC
S11305F0AEE0B0E0EEEFF2E00C94B9050D891E898F
S113060086E08C831A8309838FEF9FE79E838D8313
S1130610AE01475E5F4F6F89788DCE0101960E94CF
S11306201A03EF81F885E00FF11F10822E96E4E0A3
S11306300C94D505ABE0B0E0E0E2F3E00C94AB053C
S11306406C017B018A01FC0117821682838181FF80
S1130650CCC1CE0101963C01F6019381F70193FDD3
S1130660859193FF81917F01882309F4BAC1853272
S113067039F493FD859193FF81917F01853229F4AB
S1130680B60190E00E941105E7CF912C212C312C6A
S1130690FFE1F315D8F08B3279F038F4803279F039
S11306A08332A1F4232D20611DC08D3261F080338B
S11306B069F4232D216016C0832D8260382EE32D2A
S11306C0E4603E2E2AC0F32DF8601DC037FC2DC017
S11306D020ED280F2A3040F08E32B9F436FC81C167
S11306E0232D2064322E19C036FE06C08AE0989E5F
S11306F0200D1124922E11C0EAE02E9E200D11240B
S1130700222EF32DF0623F2E08C08C3621F4832D67
S11307108068382E02C0883641F4F70193FD859134
S113072093FF81917F018111B3CF982F9F7D9554C1
S1130730933028F40C5F1F4F9FE399830DC08336D9
S113074031F0833771F0833509F059C021C0F801C5
S1130750808189830E5F1F4F88248394912C5301D9
S113076013C02801F2E04F0E511CF801A080B180A3
S113077036FE03C0692D70E002C06FEF7FEFC50144
S11307800E9406054C018201F32DFF773F2E16C00F
S1130790280122E0420E511CF801A080B18036FEEF
S11307A003C0692D70E002C06FEF7FEFC5010E94A6
S11307B0FB044C01F32DF0683F2E820133FC1BC077
S11307C0822D90E088169906B0F4B60180E290E09C
S11307D00E9411052A94F4CFF50137FC859137FE68
S11307E081915F01B60190E00E94110521102A94C5
S11307F021E0821A91088114910471F7E8C08436CB
S113080011F0893641F5F80137FE07C06081718126
S1130810828193810C5F1F4F08C060817181072E14
S1130820000C880B990B0E5F1F4FF32DFF763F2EA4
S113083097FF09C090958095709561957F4F8F4F74
S11308409F4FF0683F2E2AE030E0A3010E944D053F
S1130850882E861845C0853731F4232D2F7EB22E7D
S11308602AE030E025C0932D997FB92E8F36C1F050
S113087018F4883579F0B5C0803719F0883721F03D
S1130880B0C0E92FE061BE2EB4FE0DC0FB2DF460B4
S1130890BF2E09C034FE0AC0292F2660B22E06C01E
S11308A028E030E005C020E130E002C020E132E081
S11308B0F801B7FE07C060817181828193810C5F6A
S11308C01F4F06C06081718180E090E00E5F1F4F72
S11308D0A3010E944D05882E8618FB2DFF773F2E1D
S11308E036FE0DC0232D2E7FA22E891458F434FE1B
S11308F00BC032FC09C0832D8E7EA82E05C0B82CF7
S1130900A32C03C0B82C01C0B92CA4FE0FC0FE0157
S1130910E80DF11D8081803321F49A2D997EA92E52
S113092009C0A2FE06C0B394B39404C08A2D86788D
S113093009F0B394A3FC11C0A0FE06C0B21488F45D
S1130940280C922C9B180EC0B21460F4B60180E2FD
S113095090E00E941105B394F7CFB21418F42B1849
S113096002C0982C212CA4FE10C0B60180E390E0B4
S11309700E941105A2FE17C0A1FC03C088E790E005
S113098002C088E590E0B6010CC08A2D867859F043
S1130990A1FE02C08BE201C080E2A7FC8DE2B60199
S11309A090E00E941105891438F4B60180E390E0C8
S11309B00E9411059A94F7CF8A94F301E80DF11D72
S11309C08081B60190E00E9411058110F5CF2220AC
S11309D009F442CEB60180E290E00E9411052A9407
S11309E0F6CFF6018681978102C08FEF9FEF2B9699
S11309F0E2E10C94C705FC010590615070400110C0
S1130A00D8F7809590958E0F9F1F0895FC01615033
S1130A10704001900110D8F7809590958E0F9F1F1C
S1130A2008950F931F93CF93DF93FB01238121FD3F
S1130A3003C08FEF9FEF2CC022FF16C04681578161
S1130A40248135814217530744F4A081B1819D016B
S1130A502F5F3F4F318320838C93268137812F5F13
S1130A603F4F3783268314C08B01EC01FB010084C4
S1130A70F185E02D0995892BE1F6D80116968D9123
S1130A809C911797019617969C938E931697CE0177
S1130A90DF91CF911F910F910895FA01AA27283071
S1130AA051F1203181F1E8946F936E7F6E5F7F4F37
S1130AB08F4F9F4FAF4FB1E03ED0B4E03CD0670FB3
S1130AC0781F891F9A1FA11D680F791F8A1F911D06
S1130AD0A11D6A0F711D811D911DA11D20D009F456
S1130AE068943F912AE0269F11243019305D319398
S1130AF0DEF6CF010895462F4770405D4193B3E081
S1130B000FD0C9F7F6CF462F4F70405D4A3318F027
S1130B10495D31FD4052419302D0A9F7EACFB4E0D8
S1130B20A6959795879577956795BA95C9F7009790
S1130B306105710508959B01AC010A2E0694579531
S1130B40479537952795BA95C9F7620F731F841F88
S1130B50951FA01D08952F923F924F925F926F921E
S1130B607F928F929F92AF92BF92CF92DF92EF9239
S1130B70FF920F931F93CF93DF93CDB7DEB7CA1BBA
S1130B80DB0B0FB6F894DEBF0FBECDBF09942A88E5
S1130B90398848885F846E847D848C849B84AA848D
S1130BA0B984C884DF80EE80FD800C811B81AA811A
S1130BB0B981CE0FD11D0FB6F894DEBF0FBECDBFE5
S10B0BC0ED010895F894FFCF44
S1130BC80D0A00432020002054656D70657261741D
S1130BD87572613A2000252020002048756D6564EF
S1130BE861643A20002046454348413A20002048A1
S1130BF84F52413A200053652072657175696572D8
S1130C086520636F6E656374617220756E20444855
S1130C185431310D0A00253032643A253032643AB1
S1130C282530326400253032642F253032642F2574
S1070C3830326400EE
S9030000FC
